:1000000028C04CC04BC04AC049C048C047C046C0C9
:1000100045C044C043C054C141C040C03FC03EC0C1
:100020003DC0003A37003B3800393600324002020A
:1000300002010101010101010101020480402010BF
:100040000804020100000102030400000000000097
:100050004F0011241FBECFE5D2E0DEBFCDBF10E0C0
:10006000A0E6B0E0E4E4F5E002C005900D92A4360D
:10007000B107D9F710E0A4E6B0E001C01D92A737A0
:10008000B107E1F710E0C2E5D0E003C02297FE011E
:1000900053D2C035D107D1F737D252C2B1CF209158
:1000A0006200309163003093650020936400C901C1
:1000B00063E070E02DD290936700809366003093E8
:1000C00069002093680090936B0080936A00C901D7
:1000D00067E070E01DD290936D0080936C000895EE
:1000E0008091600061E0D6D16091640070916500FC
:1000F000882777FD8095982F2CD18091600060E053
:10010000C9D16091680070916900882777FD80955A
:10011000982F1FD18091600061E0BCD16091640094
:1001200070916500882777FD8095982F12D1809176
:10013000600060E0AFD1609168007091690088272D
:1001400077FD8095982F05D18091600061E0A2D164
:100150006091640070916500882777FD8095982FE5
:10016000F8D08091600060E095D160916A00709154
:100170006B00882777FD8095982FEBD080916000E9
:1001800061E088D16091660070916700882777FDF3
:100190008095982FDED08091600060E07BD16091E7
:1001A000680070916900882777FD8095982FD1D0DD
:1001B0008091600061E06ED160916600709167008F
:1001C000882777FD8095982FC4D08091600060E0EB
:1001D00061D16091680070916900882777FD8095F2
:1001E000982FB7D08091600061E054D16091660093
:1001F00070916700882777FD8095982FAAD080910D
:10020000600060E047D160916A0070916B008827C0
:1002100077FD8095982F9DD08091600061E03AD164
:100220006091640070916500882777FD8095982F14
:1002300090D08091600060E02DD160916800709155
:100240006900882777FD8095982F83D08091600082
:1002500061E020D16091640070916500882777FD8E
:100260008095982F76D08091600060E013D16091E6
:10027000680070916900882777FD8095982F69D074
:100280008091600061E006D160916400709165002A
:10029000882777FD8095982F5CD08091600060E082
:1002A000F9D060916C0070916D00882777FD809582
:1002B000982F4FD008958091600061E0C7D00895D5
:1002C0001F920F920FB60F9211242F933F938F938B
:1002D0009F93AF93BF938091720090917300A09110
:1002E0007400B091750030917600232F2A5F2D376E
:1002F00028F02D570396A11DB11D03C00296A11D24
:10030000B11D209376008093720090937300A093A8
:100310007400B093750080916E0090916F00A09171
:100320007000B09171000196A11DB11D80936E0007
:1003300090936F00A0937000B0937100BF91AF9144
:100340009F918F913F912F910F900FBE0F901F9013
:1003500018959B01AC017FB7F89480916E00909145
:100360006F00A0917000B091710062B708B600FEF6
:1003700005C06F3F19F00196A11DB11D7FBFBA2FB7
:10038000A92F982F8827860F911DA11DB11D63E00D
:10039000880F991FAA1FBB1F6A95D1F7BC012EC0F9
:1003A000FFB7F89480916E0090916F00A09170005B
:1003B000B0917100E2B708B600FE05C0EF3F19F03A
:1003C0000196A11DB11DFFBFBA2FA92F982F882715
:1003D0008E0F911DA11DB11DE3E0880F991FAA1F6B
:1003E000BB1FEA95D1F7861B970B885E9340C0F23E
:1003F000215030404040504068517C4F211531051C
:100400004105510569F60895789480B7836080BFEF
:1004100083B7877F83BF83B7887F836083BF89B7B4
:10042000816089BF8EB5887F8EBD8FB58C7F8160DE
:100430008FBD8EB5877E8EBD8EB5887F83608EBD65
:1004400086B1887F866086B9379A0895482F50E034
:10045000CA01875C9F4FFC012491425D5F4FFA0106
:1004600084918823B1F0E82FF0E0EE5DFF4FE49136
:10047000F0E0662341F49FB7F894808120958223B1
:1004800080839FBF08959FB7F8948081822B8083DB
:100490009FBF0895282F482F50E0CA01875C9F4FC7
:1004A000FC013491425D5F4FFA019491992359F117
:1004B000223019F480B78F7304C0233021F480B741
:1004C0008F7C80BF0AC0243019F48FB58F7304C0AD
:1004D000253019F48FB58F7C8FBDE92FF0E0EB5DEF
:1004E000FF4FE491F0E0662341F49FB7F8948081D8
:1004F0003095832380839FBF08959FB7F8948081B0
:10050000832B80839FBF08957FDFD5DEE9DDFECF9B
:100510005527002480FF02C0060E571F660F771F65
:100520006115710521F096958795009799F7952F9C
:10053000802D0895EE0FFF1F0590F491E02D099492
:04054000F894FFCF5D
:040544000900780032
:00000001FF
