:100000002CC050C04FC04EC04DC04CC05EC14AC095
:1000100049C048C047C046C045C044C043C042C0B4
:1000200041C040C03FC03EC03DC0010202010408C3
:100030001020400102040810204080040404010143
:100040000404040404020202020202020201003B50
:10005000380032003A370031350111241FBECFE598
:10006000D1E0DEBFCDBF10E0A0E6B0E0E0EFF4E00D
:1000700002C005900D92A436B107D9F710E0A4E6AE
:10008000B0E001C01D92A737B107E1F710E0CAE563
:10009000D0E003C02297FE0125D2C835D107D1F7A1
:1000A00009D224C2ADCF61E080916200B5C1CF9387
:1000B000DF93C2E6D0E061E08881CAD160916C0034
:1000C00070916D00882777FD8095982F72D160E040
:1000D0008881BED16091680070916900882777FDA2
:1000E0008095982F66D161E08881B2D160916C00D3
:1000F00070916D00882777FD8095982F5AD160E028
:100100008881A6D16091680070916900882777FD89
:100110008095982F4ED161E088819AD160916C00D2
:1001200070916D00882777FD8095982F42D160E00F
:1001300088818ED16091660070916700882777FD75
:100140008095982F36D161E0888182D160916A00D4
:1001500070916B00882777FD8095982F2AD160E0F9
:10016000888176D16091680070916900882777FD59
:100170008095982F1ED161E088816AD160916A00D4
:1001800070916B00882777FD8095982F12D160E0E1
:1001900088815ED16091680070916900882777FD41
:1001A0008095982F06D161E0888152D160916A00D4
:1001B00070916B00882777FD8095982FFAD060E0CA
:1001C000888146D16091660070916700882777FD2D
:1001D0008095982FEED061E088813AD160916C00D3
:1001E00070916D00882777FD8095982FE2D060E0B0
:1001F00088812ED16091680070916900882777FD11
:100200008095982FD6D061E0888122D160916C00D2
:1002100070916D00882777FD8095982FCAD060E097
:10022000888116D16091680070916900882777FDF8
:100230008095982FBED061E088810AD160916C00D2
:1002400070916D00882777FD8095982FB2D060E07F
:100250008881FED06091640070916500882777FDE9
:100260008095982FDF91CF91A4C0209160003091AC
:10027000610030936D0020936C00C90163E070E071
:100280001DD190936B0080936A0030936900209396
:1002900068009093670080936600C90167E070E092
:1002A0000DD1909365008093640008958EB5887F8A
:1002B0008EBD8FB58C7F81608FBD8EB5877E8EBDE4
:1002C0008EB5887F82608EBD08951F920F920FB603
:1002D0000F9211242F933F938F939F93AF93BF93CC
:1002E00080916E0090916F00A0917000B0917100AC
:1002F00030917600232F2A5F2D3728F02D57039653
:10030000A11DB11D03C00296A11DB11D2093760051
:1003100080936E0090936F00A0937000B093710073
:100320008091720090917300A0917400B09175005B
:100330000196A11DB11D8093720090937300A0934C
:100340007400B0937500BF91AF919F918F913F91D1
:100350002F910F900FBE0F901F9018950F931F9322
:100360009FB7F8940091720010917300209174006F
:100370003091750082B708B601FE06C08F3F21F0AC
:100380000F5F1F4F2F4F3F4F9FBF322F212F102F37
:100390000027080F111D211D311D43E0000F111F03
:1003A000221F331F4A95D1F7B801C9011F910F9140
:1003B0000895CF92DF92EF92FF92CF93DF936B017C
:1003C0007C01CCDFEB010DC0C9DF6C1B7D0B683EEF
:1003D000734038F081E0C81AD108E108F108C8512B
:1003E000DC4FC114D104E104F10471F7DF91CF9126
:1003F000FF90EF90DF90CF900895789480B783605E
:1004000080BF83B7877F83BF83B7887F826083BFC6
:1004100089B7826089BF4ACF90E0FC01E65DFF4F5B
:100420002491FC01E45CFF4FE491EE2381F0F0E0C5
:10043000ED5AFF4FA491B0E09FB7F8948C916111F1
:1004400003C02095822301C0822B8C939FBF089507
:10045000A82FB0E0FD01E65DFF4F9491FD01E45C43
:10046000FF4FE491EE2329F18B3019F480B78F739D
:1004700004C0873021F480B78F7C80BF0AC08C30E5
:1004800019F48FB58F7304C08D3019F48FB58F7C3C
:100490008FBDF0E0E25BFF4FA491B0E02FB7F8947E
:1004A0008C91611103C09095892301C0892B8C9395
:1004B0002FBF0895A2DFF7DDFADDFECF5527002418
:1004C00080FF02C0060E571F660F771F611571056A
:1004D00021F096958795009799F7952F802D08958F
:1004E000EE0FFF1F0590F491E02D0994F894FFCFD3
:0404F0007800090087
:00000001FF
