:100000001BC03FC03EC03DC04EC13BC03AC039C01E
:1000100038C037C036C035C034C033C032C00037F6
:10002000003800360101010101010102040810201D
:10003000010300000000420011241FBECFE5D2E002
:10004000DEBFCDBF10E0A0E6B0E0EAE2F5E002C01E
:1000500005900D92A436B107D9F710E0A4E6B0E000
:1000600001C01D92A737B107E1F710E0C8E3D0E067
:1000700003C02297FE0153D2C633D107D1F737D23E
:1000800052C2BECF20916200309163003093650070
:1000900020936400C90163E070E02DD29093670063
:1000A00080936600309369002093680090936B0002
:1000B00080936A00C90167E070E01DD290936D00E3
:1000C00080936C0008958091600061E0DBD16091C5
:1000D000640070916500882777FD8095982F2CD15A
:1000E0008091600060E0CED16091680070916900FD
:1000F000882777FD8095982F1FD18091600061E05F
:10010000C1D16091640070916500882777FD80956A
:10011000982F12D18091600060E0B4D160916800A6
:1001200070916900882777FD8095982F05D180917F
:10013000600061E0A7D1609164007091650088273C
:1001400077FD8095982FF8D08091600060E09AD17B
:1001500060916A0070916B00882777FD8095982FD9
:10016000EBD08091600061E08DD16091660070916C
:100170006700882777FD8095982FDED080916000FA
:1001800060E080D16091680070916900882777FDF8
:100190008095982FD1D08091600061E073D16091FB
:1001A000660070916700882777FD8095982FC4D0EE
:1001B0008091600060E066D1609168007091690094
:1001C000882777FD8095982FB7D08091600061E0F7
:1001D00059D16091660070916700882777FD8095FE
:1001E000982FAAD08091600060E04CD160916A00A5
:1001F00070916B00882777FD8095982F9DD0809116
:10020000600061E03FD160916400709165008827D3
:1002100077FD8095982F90D08091600060E032D17A
:100220006091680070916900882777FD8095982F0C
:1002300083D08091600061E025D16091640070916D
:100240006500882777FD8095982F76D08091600093
:1002500060E018D16091680070916900882777FD8F
:100260008095982F69D08091600061E00BD16091FA
:10027000640070916500882777FD8095982F5CD089
:100280008091600060E0FED060916C0070916D0024
:10029000882777FD8095982F4FD008958091600032
:1002A00061E0CCD008951F920F920FB60F921124E7
:1002B0002F933F938F939F93AF93BF93809172003F
:1002C00090917300A0917400B09175003091760008
:1002D000232F2A5F2D3728F02D570396A11DB11D1E
:1002E00003C00296A11DB11D209376008093720079
:1002F00090937300A0937400B093750080916E008A
:1003000090916F00A0917000B09171000196A11DB5
:10031000B11D80936E0090936F00A0937000B09316
:100320007100BF91AF919F918F913F912F910F904D
:100330000FBE0F901F9018959B01AC017FB7F894EA
:1003400080916E0090916F00A0917000B09171004B
:100350006FB508B602FE05C06F3F19F00196A11DEA
:10036000B11D7FBFBA2FA92F982F8827860F911D07
:10037000A11DB11D63E0880F991FAA1FBB1F6A95BD
:10038000D1F7BC012EC0FFB7F89480916E00909118
:100390006F00A0917000B0917100EFB508B602FE39
:1003A00005C0EF3F19F00196A11DB11DFFBFBA2F87
:1003B000A92F982F88278E0F911DA11DB11DE3E055
:1003C000880F991FAA1FBB1FEA95D1F7861B970BB1
:1003D000885E9340C0F22150304040405040685108
:1003E0007C4F211531054105510569F60895789432
:1003F00080B7806880BF80B7806480BF8CB5806420
:100400008CBD8FEF8DBD80B7807F876080BF89B73F
:10041000846089BF83B7887F83BF8AB58C7F816002
:100420008ABD83B7877F83BF83B7887F836083BF9D
:1004300086B1887F866086B9379A0895482F50E044
:10044000CA01865D9F4FFC0124914C5D5F4FFA010C
:1004500084918823B1F0E82FF0E0E25EFF4FE49151
:10046000F0E0662341F49FB7F894808120958223C1
:1004700080839FBF08959FB7F8948081822B8083EB
:100480009FBF0895282F482F50E0CA01865D9F4FD7
:10049000FC0134914C5D5F4FFA019491992331F145
:1004A000222319F48AB58F7304C0213021F48AB550
:1004B0008F7C8ABD05C0243019F48CB58F7C8CBD2F
:1004C000E92FF0E0E05EFF4FE491F0E0662341F4B5
:1004D0009FB7F89480813095832380839FBF0895D0
:1004E0009FB7F8948081832B80839FBF08957FDF1F
:1004F000D5DEE9DDFECF5527002480FF02C0060EC1
:10050000571F660F771F6115710521F09695879526
:10051000009799F7952F802D0895EE0FFF1F0590F6
:0A052000F491E02D0994F894FFCF48
:04052A000400780051
:00000001FF
